S010000041565233354943522E73726563E5
S11300000C9434000C9451000C9451000C94510045
S11300100C9451000C9451000C9451000C94510018
S11300200C9451000C9451000C94B5000C945100A4
S11300300C9451000C94A4000C9451000C945100A5
S11300400C9451000C9451000C9406010C9434014E
S11300500C9451000C9451000C9451000C945100D8
S11300600C9451000C94510011241FBECFEFD8E022
S1130070DEBFCDBF11E0A0E0B1E0EEE0F9E002C0E8
S113008005900D92A632B107D9F721E0A6E2B1E0BE
S113009001C01D92A437B207E1F70E9453000C94EB
S11300A085040C940000CF93DF93CDB7DEB72A9775
S11300B00FB6F894DEBF0FBECDBF2098789487E6C4
S11300C090E00E945E012FEF81EE94E02150804089
S11300D09040E1F700C0000080E091E00E948C01B4
S11300E0E1E8F0E080818F7B808380818160808380
S11300F0808182608083EFE6F0E08081816280838A
S11301000F2EF0E2EF2EF1E0FF2EF02D8E010F5FA7
S11301101F4F80916E0190916F01A0917001B09179
S11301207101BF93AF939F938F93FF92EF921F93AD
S11301300F930E949B01C8010E948C010FB6F89492
S1130140DEBF0FBECDBFE5CF1F920F920FB60F9249
S113015011248F9380916B018F5F80936B018F913A
S11301600F900FBE0F901F9018951F920F920FB60D
S11301700F9211242F933F934F935F938F939F93E9
S1130180AF93BF93809187002091860090E0982FD1
S11301908827820F911D90936D0180936C012091AB
S11301A06C0130916D0180916B014091720150910D
S11301B0730190E0A0E0B0E0DC0199278827841B5C
S11301C0950BA109B109820F931FA11DB11D809345
S11301D06E0190936F01A0937001B093710110921E
S11301E06B0180916C0190916D01909373018093E8
S11301F07201BF91AF919F918F915F914F913F9108
S11302002F910F900FBE0F901F9018951F920F9271
S11302100FB60F9211242F938F939F93EF93FF9315
S11302208091C0002091C6008C71E0912801EF5F9D
S1130230EF7190912701E91739F0E0932801F0E07C
S1130240E55DFE4F208301C082E090912601892B59
S113025080932601FF91EF919F918F912F910F90A1
S11302600FBE0F901F9018951F920F920FB60F920A
S113027011248F939F93EF93FF9390912A01809180
S11302802901981769F0E0912901EF5FEF71E0937C
S11302902901F0E0E55BFE4F80818093C60005C034
S11302A0E1ECF0E080818F7D8083FF91EF919F915D
S11302B08F910F900FBE0F901F90189510922A01E6
S11302C010922901109228011092270199231CF4FD
S11302D022E02093C00090789093C5008093C400DE
S11302E088E98093C10086E08093C200089520913C
S11302F02A012F5F2F71909129012917E1F3E22F31
S1130300F0E0E55BFE4F808320932A01E1ECF0E00E
S11303108081806280830895CF93DF93EC0188818C
S1130320882331F021960E94770189918111FBCFB6
S1130330DF91CF910895AEE0B0E0E1EAF1E00C94F2
S11303405C040D891E8986E08C831A8309838FEFF0
S11303509FE79E838D83AE01475E5F4F6F89788DE3
S1130360CE0101960E94BD01EF81F885E00FF11FD7
S113037010822E96E4E00C947804ABE0B0E0E3EC59
S1130380F1E00C944E046C017B018A01FC0117829C
S11303901682838181FFCCC1CE0101963C01F60116
S11303A09381F70193FD859193FF81917F018823C8
S11303B009F4BAC1853239F493FD859193FF819193
S11303C07F01853229F4B60190E00E94B403E7CF9F
S11303D0912C212C312CFFE1F315D8F08B3279F0DC
S11303E038F4803279F08332A1F4232D20611DC0CA
S11303F08D3261F0803369F4232D216016C0832D82
S11304008260382EE32DE4603E2E2AC0F32DF8607E
S11304101DC037FC2DC020ED280F2A3040F08E324D
S1130420B9F436FC81C1232D2064322E19C036FE66
S113043006C08AE0989E200D1124922E11C0EAE095
S11304402E9E200D1124222EF32DF0623F2E08C083
S11304508C3621F4832D8068382E02C0883641F40E
S1130460F70193FD859193FF81917F018111B3CFB2
S1130470982F9F7D9554933028F40C5F1F4F9FE372
S113048099830DC0833631F0833771F0833509F0D9
S113049059C021C0F801808189830E5F1F4F8824D1
S11304A08394912C530113C02801F2E04F0E511C88
S11304B0F801A080B18036FE03C0692D70E002C04F
S11304C06FEF7FEFC5010E94A9034C018201F32D58
S11304D0FF773F2E16C0280122E0420E511CF8017E
S11304E0A080B18036FE03C0692D70E002C06FEFBA
S11304F07FEFC5010E949E034C01F32DF0683F2E4F
S1130500820133FC1BC0822D90E088169906B0F45A
S1130510B60180E290E00E94B4032A94F4CFF5017E
S113052037FC859137FE81915F01B60190E00E940E
S1130530B40321102A9421E0821A910881149104B1
S113054071F7E8C0843611F0893641F5F80137FEB9
S113055007C060817181828193810C5F1F4F08C045
S113056060817181072E000C880B990B0E5F1F4F61
S1130570F32DFF763F2E97FF09C0909580957095D7
S113058061957F4F8F4F9F4FF0683F2E2AE030E0F8
S1130590A3010E94F003882E861845C0853731F4E4
S11305A0232D2F7EB22E2AE030E025C0932D997F93
S11305B0B92E8F36C1F018F4883579F0B5C080377C
S11305C019F0883721F0B0C0E92FE061BE2EB4FEE7
S11305D00DC0FB2DF460BF2E09C034FE0AC0292FC4
S11305E02660B22E06C028E030E005C020E130E0ED
S11305F002C020E132E0F801B7FE07C060817181DA
S1130600828193810C5F1F4F06C06081718180E0FD
S113061090E00E5F1F4FA3010E94F003882E8618FE
S1130620FB2DFF773F2E36FE0DC0232D2E7FA22EED
S1130630891458F434FE0BC032FC09C0832D8E7E1D
S1130640A82E05C0B82CA32C03C0B82C01C0B92C0B
S1130650A4FE0FC0FE01E80DF11D8081803321F45A
S11306609A2D997EA92E09C0A2FE06C0B394B39414
S113067004C08A2D867809F0B394A3FC11C0A0FEAF
S113068006C0B21488F4280C922C9B180EC0B21425
S113069060F4B60180E290E00E94B403B394F7CF13
S11306A0B21418F42B1802C0982C212CA4FE10C0EC
S11306B0B60180E390E00E94B403A2FE17C0A1FC3F
S11306C003C088E790E002C088E590E0B6010CC062
S11306D08A2D867859F0A1FE02C08BE201C080E227
S11306E0A7FC8DE2B60190E00E94B403891438F4AB
S11306F0B60180E390E00E94B4039A94F7CF8A9401
S1130700F301E80DF11D8081B60190E00E94B4036D
S11307108110F5CF222009F442CEB60180E290E0A8
S11307200E94B4032A94F6CFF6018681978102C011
S11307308FEF9FEF2B96E2E10C946A04FC01059085
S1130740615070400110D8F7809590958E0F9F1FCF
S11307500895FC016150704001900110D8F7809514
S113076090958E0F9F1F08950F931F93CF93DF9340
S1130770FB01238121FD03C08FEF9FEF2CC022FFDB
S113078016C046815781248135814217530744F4AA
S1130790A081B1819D012F5F3F4F318320838C93D2
S11307A0268137812F5F3F4F3783268314C08B0107
S11307B0EC01FB010084F185E02D0995892BE1F61C
S11307C0D80116968D919C911797019617969C9334
S11307D08E931697CE01DF91CF911F910F910895BB
S11307E0FA01AA27283051F1203181F1E8946F935E
S11307F06E7F6E5F7F4F8F4F9F4FAF4FB1E03ED004
S1130800B4E03CD0670F781F891F9A1FA11D680FA1
S1130810791F8A1F911DA11D6A0F711D811D911DD4
S1130820A11D20D009F468943F912AE0269F112449
S11308303019305D3193DEF6CF010895462F4770AD
S1130840405D4193B3E00FD0C9F7F6CF462F4F7008
S1130850405D4A3318F0495D31FD4052419302D066
S1130860A9F7EACFB4E0A69597958795779567950C
S1130870BA95C9F700976105710508959B01AC010C
S11308800A2E06945795479537952795BA95C9F733
S1130890620F731F841F951FA01D08952F923F920E
S11308A04F925F926F927F928F929F92AF92BF927C
S11308B0CF92DF92EF92FF920F931F93CF93DF9328
S11308C0CDB7DEB7CA1BDB0B0FB6F894DEBF0FBE85
S11308D0CDBF09942A88398848885F846E847D84D2
S11308E08C849B84AA84B984C884DF80EE80FD80D4
S11308F00C811B81AA81B981CE0FD11D0FB6F8944A
S1110900DEBF0FBECDBFED010895F894FFCF0A
S113090E494E505554204341505455524520444568
S113091E4E454D452050524F4752414D49200A00F5
S109092E256C75200A008F
S9030000FC
