S014000041565239375365676D656E742E73726563E4
S11300000C9434000C9449000C9449000C9449005D
S11300100C9449000C9449000C9449000C94490038
S11300200C9449000C9449000C9449000C94490028
S11300300C9449000C9449000C9449000C94490018
S11300400C9449000C9449000C9449000C94490008
S11300500C9449000C9449000C9449000C944900F8
S11300600C9449000C94490011241FBECFEFD8E032
S1130070DEBFCDBF11E0A0E0B1E0ECEEF0E002C0E5
S113008005900D92AA30B107D9F70E944B000C9449
S113009074000C940000CF93DF93CDB7DEB729979B
S11300A00FB6F894DEBF0FBECDBF89E0E0E0F1E00B
S11300B0DE01119601900D928A95E1F78FEF8AB9CE
S11300C09E01265F3F4FFE01319681918BB94FEF20
S11300D083ED90E3415080409040E1F700C0000080
S10F00E0E217F30791F7EFCFF894FFCF7D
S10D00EC065B4F666D7D07FF6F0091
S9030000FC
