S0230000415652345F4475676D657965426173696E636159616E616E4C65642E73726563F8
S11300000C9434000C943E000C943E000C943E007E
S11300100C943E000C943E000C943E000C943E0064
S11300200C943E000C943E000C943E000C943E0054
S11300300C943E000C943E000C943E000C943E0044
S11300400C943E000C943E000C943E000C943E0034
S11300500C943E000C943E000C943E000C943E0024
S11300600C943E000C943E0011241FBECFEFD8E048
S1130070DEBFCDBF0E9440000C9449000C940000E8
S1130080549A53985B9A4B9902C05C9AFCCF5C9843
S1090090FACFF894FFCF43
S9030000FC
