S01100004156524932434C43442E7372656399
S11300000C9434000C9451000C9451000C94510045
S11300100C9451000C9451000C9451000C94510018
S11300200C9451000C9451000C9451000C94510008
S11300300C9451000C9451000C9451000C945100F8
S11300400C9451000C9451000C9451000C945100E8
S11300500C9451000C9451000C9451000C945100D8
S11300600C9451000C94510011241FBECFEFD8E022
S1130070DEBFCDBF11E0A0E0B1E0E2EAF2E002C0F1
S113008005900D92AE30B107D9F721E0AEE0B1E0B2
S113009001C01D92AF30B207E1F70E9448010C94F1
S11300A04F010C9400008FEF8093B800089584EA08
S11300B08093BC00ECEBF0E080818823ECF708959A
S11300C08093BB0084E88093BC00ECEBF0E080817B
S11300D08823ECF70895CF93DF93C82FD62F0E947F
S11300E057008D2F0E9460008C2F0E94600084E9CD
S11300F08093BC00DF91CF910895CF93C82F809156
S11301000E01846080930E016EE70E946B0080E113
S11301108A95F1F700C0C295C07F80910E016EE709
S11301208C2B0E946B0080910E018B7F80930E01BB
S11301306EE70E946B0080E18A95F1F700C0CF91D1
S11301400895CF93DF93C82FD82FD295DF70611114
S113015009C080910E018E7F80930E016EE70E948C
S11301606B0008C080910E01816080930E016EE7E0
S11301700E946B008D2F0E947D008C2F0E947D00B9
S1130180DF91CF910895CF93C82F80910E018160A4
S113019080930E016EE70E946B008C2F82958F7006
S11301A00E947D008C2F0E947D00CF9108951092B3
S11301B00E010E94530085EA9EE00197F1F700C00A
S11301C0000083E00E947D0087EE93E00197F1F741
S11301D000C0000083E00E947D0091E29A95F1F74F
S11301E0000083E00E947D0089EF90E00197F1F721
S11301F000C0000082E00E947D0089EF90E001973A
S1130200F1F700C0000060E088E20E94A10089EFDD
S113021090E00197F1F700C0000060E08CE00E94DC
S1130220A10089EF90E00197F1F700C0000060E0C1
S113023086E00E94A10089EF90E00197F1F700C0E9
S1130240000080910E01886080930E016EE70E9489
S11302506B0080910E018D7F80930E016EE70E94EA
S11302606B0008950F931F93CF93FC018081882323
S113027059F08F01C0E00E94C300CF5FF801EC0F7A
S1130280F11D80818111F7CFCF911F910F910895B6
S11302900E94D70080E091E00E943201FFCFF894E1
S10502A0FFCF8A
S11102A24D6572686162612044756E79610079
S9030000FC
