S02600004156523136496E7465726E616C54656D706572617475726553656E736F722E7372656369
S11300000C9434000C9451000C9451000C94510045
S11300100C9451000C9451000C9451000C94510018
S11300200C9451000C9451000C9451000C94510008
S11300300C9451000C9451000C9451000C945100F8
S11300400C9451000C9451000C9451000C945100E8
S11300500C9451000C9451000C9451000C945100D8
S11300600C9451000C94510011241FBECFEFD8E022
S1130070DEBFCDBF11E0A0E0B1E0E6E8F7E002C0EA
S113008005900D92A830B107D9F721E0A8E0B1E0BE
S113009001C01D92AC30B207E1F70E9453000C94EA
S11300A0C1030C940000CF93DF93CDB7DEB72A973A
S11300B00FB6F894DEBF0FBECDBF8CE00E94660180
S11300C088EC80937C00EAE7F0E086E88083808116
S11300D080648083808186FDFDCF0AE710E00F2EC7
S11300E0F8E78F2E912CF02D0F2EF6E07F2EF02DB9
S11300F05E0185E0A80EB11CF801808180648083D4
S1130100F801808186FDFCCFF40160817181675F15
S1130110710980E090E00E949B0226EF38E24CE9EE
S11301205FE30E9407020E946F026B017C017093DF
S11301300B0160930A0180E090E00E949B0226E696
S113014036E646EE5FE30E94290320E030E040E01B
S113015052E40E94A3010E946F027093090160930C
S1130160080119821A821B821C82F501872D1192C3
S11301708A95E9F74AE0BE016F5F7F4FC6010E948E
S11301808C030E943D01CE0101960E94560180E03D
S113019091E00E945601B0CF5C9A00005C980895EB
S11301A0CF93C82F662311F05A9A01C05A985B98CE
S11301B0559A569A579A209A28985F985E985D980F
S11301C0CC230CF4289AC6FD5F9AC5FD5E9AC4FD43
S11301D05D9A0E94CC0028985F985E985D98C3FD54
S11301E0289AC2FD5F9AC1FD5E9AC0FD5D9A0E9485
S11301F0CC005D9A5E9A5F9A289ACF9108958823DD
S113020011F05A9A01C05A985B9A55985698579883
S113021020985C9A00004D9902C080E001C080E102
S11302204E9980624F998064189980685C980000A8
S11302305C9A00004D9981604E9982604F99846068
S1130240189988605C98089580E00E94FF008823D4
S1130250DCF300C000C080E00E94FF000895CF934B
S1130260C82F0E94240160E08C2F0E94D000CF91FF
S1130270089581E00E942F01089582E00E942F01D9
S11302800895CF93C82F0E942401CA3049F48034C2
S113029010F480E401C080E080580E942F0104C063
S11302A061E08C2F0E94D000CF910895CF93DF930B
S11302B0EC012196FC018081882329F00E944101F0
S11302C089918111FBCFDF91CF910895CF93C82FEE
S11302D0529A539A549A559A569A579A209A8FE951
S11302E09FE00197F1F700C000005E9A5D9A0E94BA
S11302F0CC0081EE94E00197F1F700C000000E9469
S1130300CC0095E19A95F1F700000E94CC0085E1BC
S11303108A95F1F700005D980E94CC0095E19A95CA
S1130320F1F7000088E20E942F0188E00E942F016B
S11303300E94390186E00E942F018C2F0E942F0118
S1130340CF9108955058BB27AA270ED048C139D160
S113035030F03ED120F031F49F3F11F41EF42EC151
S11303600EF4E095E7FB24C1E92F4AD180F3BA17D4
S1130370620773078407950718F071F49EF562C14C
S11303800EF4E0950B2EBA2FA02D0B01B9019001AC
S11303900C01CA01A0011124FF27591B99F0593FF0
S11303A050F4503E68F11A16F040A22F232F342F38
S11303B04427585FF3CF469537952795A795F04086
S11303C05395C9F77EF41F16BA0B620B730B840B9B
S11303D0BAF09150A1F0FF0FBB1F661F771F881F53
S11303E0C2F70EC0BA0F621F731F841F48F48795AB
S11303F077956795B795F7959E3F08F0B3CF93959A
S1130400880F08F09927EE0F9795879508950CD0DB
S1130410E6C0DED040F0D5D030F021F45F3F19F0D3
S1130420C7C0511110C1CAC0EBD098F39923C9F3C6
S11304305523B1F3951B550BBB27AA2762177307E6
S1130440840738F09F5F5F4F220F331F441FAA1F9A
S1130450A9F333D00E2E3AF0E0E830D0915050405A
S1130460E695001CCAF729D0FE2F27D0660F771F08
S1130470881FBB1F261737074807AB07B0E809F0EA
S1130480BB0B802DBF01FF2793585F4F2AF09E3F7F
S1130490510568F08DC0D7C05F3FECF3983EDCF3A4
S11304A0869577956795B795F7959F5FC9F7880FF8
S11304B0911D9695879597F90895E1E0660F771F4A
S11304C0881FBB1F621773078407BA0720F0621BDB
S11304D0730B840BBA0BEE1F88F7E095089598D040
S11304E088F09F5790F0B92F9927B751A0F0D1F019
S11304F0660F771F881F991F1AF0BA95C9F712C0A3
S1130500B13081F09FD0B1E008959CC0672F782F5F
S11305108827B85F39F0B93FCCF38695779567950E
S1130520B395D9F73EF490958095709561957F4F7A
S11305308F4F9F4F0895E89409C097FB3EF4909520
S11305408095709561957F4F8F4F9F4F9923A9F0A8
S1130550F92F96E9BB279395F69587957795679537
S1130560B795F111F8CFFAF4BB0F11F460FF1BC07B
S11305706F5F7F4F8F4F9F4F16C0882311F096E90E
S113058011C0772321F09EE8872F762F05C06623BC
S113059071F096E8862F70E060E02AF09A95660F75
S11305A0771F881FDAF7880F9695879597F908952E
S11305B097F99F6780E870E060E008959FEF80EC12
S11305C0089500240A9416161706180609060895B5
S11305D000240A9412161306140605060895092E1B
S11305E00394000C11F4882352F0BB0F40F4BF2B8A
S11305F011F460FF04C06F5F7F4F8F4F9F4F0895CA
S113060057FD9058440F551F59F05F3F71F04795BF
S1130610880F97FB991F61F09F3F79F087950895A4
S1130620121613061406551FF2CF4695F1DF08C0C3
S1130630161617061806991FF1CF869571056105E0
S113064008940895E894BB2766277727CB0197F988
S113065008950BD0C4CFB5DF28F0BADF18F0952386
S113066009F0A6CFABCF1124EECFCADFA0F3959F3C
S1130670D1F3950F50E0551F629FF001729FBB2785
S1130680F00DB11D639FAA27F00DB11DAA1F649F31
S11306906627B00DA11D661F829F2227B00DA11DE4
S11306A0621F739FB00DA11D621F839FA00D611D6A
S11306B0221F749F3327A00D611D231F849F600D8B
S11306C0211D822F762F6A2F11249F5750408AF0C4
S11306D0E1F088234AF0EE0FFF1FBB1F661F771F50
S11306E0881F91505040A9F79E3F510570F060CF8C
S11306F0AACF5F3FECF3983EDCF386957795679538
S1130700B795F795E7959F5FC1F7FE2B880F911D6D
S11307109695879597F90895BB274A3031F4992324
S113072022F4BDE2909581959F4F0C949803BB27CA
S1130730FB015527AA27880F991FAA1FA41710F099
S1130740A41B83955051B9F7A05DAA3308F0A95DA5
S1130750A193009779F7B111B1931192CB010C9445
S1130760B103DC01FC01672F71917723E1F7329724
S113077004C07C916D9370836291AE17BF07C8F378
S10907800895F894FFCF78
S10B0786432020202020000084
S9030000FC
