S01B000041565231344C43444C4452557967756C616D612E73726563C1
S11300000C9434000C9449000C9449000C9449005D
S11300100C9449000C9449000C9449000C94490038
S11300200C9449000C9449000C9449000C94490028
S11300300C9449000C9449000C9449000C94490018
S11300400C9449000C9449000C9449000C94490008
S11300500C9449000C9449000C9449000C944900F8
S11300600C9449000C94490011241FBECFEFD8E032
S1130070DEBFCDBF11E0A0E0B1E0E2EAF3E002C0F0
S113008005900D92AE31B107D9F70E9471000C941E
S1130090CF010C940000EAE7F0E080818760808360
S11300A0ACE7B0E08C9180648C938081806880831D
S11300B08081806480830895ECE7F0E09081907FF4
S11300C090839081892B8083EAE7F0E080818064CB
S11300D08083808186FDFDCF8091780090917900A6
S11300E008958CE00E9443010E944B000F2ECC2403
S11300F0CA94F3E0DF2EE12CF12CF02D0E941A01BA
S113010080E00E945C009C01A4E6B0E00E949E0195
S1130110A70196010E947F01213531054105510552
S11301202CF080E091E00E9433010EC023333105AE
S1130130410551052CF089E091E00E94330104C08F
S11301408FE091E00E94330188E191E00E94330145
S1130150D5CF5C9A00005C980895CF93C82F66238E
S113016011F05A9A01C05A985B98559A569A579A20
S1130170209A28985F985E985D98CC230CF4289A6E
S1130180C6FD5F9AC5FD5E9AC4FD5D9A0E94A900F2
S113019028985F985E985D98C3FD289AC2FD5F9A7F
S11301A0C1FD5E9AC0FD5D9A0E94A9005D9A5E9AA7
S11301B05F9A289ACF910895882311F05A9A01C022
S11301C05A985B9A55985698579820985C9A0000CC
S11301D04D9902C080E001C080E14E9980624F9940
S11301E08064189980685C9800005C9A00004D99BE
S11301F081604E9982604F998460189988605C98F8
S1130200089580E00E94DC008823DCF300C000C075
S113021080E00E94DC000895CF93C82F0E94010162
S113022060E08C2F0E94AD00CF91089581E00E9480
S11302300C01089582E00E940C010895CF93C82F09
S11302400E940101CA3049F4803410F480E401C0F2
S113025080E080580E940C0104C061E08C2F0E9451
S1130260AD00CF910895CF93DF93EC012196FC016B
S11302708081882329F00E941E0189918111FBCF7E
S1130280DF91CF910895CF93C82F529A539A549ADD
S1130290559A569A579A209A8FE99FE00197F1F759
S11302A000C000005E9A5D9A0E94A90081EE94E06D
S11302B00197F1F700C000000E94A90095E19A950A
S11302C0F1F700000E94A90085E18A95F1F700008A
S11302D05D980E94A90095E19A95F1F7000088E2E3
S11302E00E940C0188E00E940C010E94160186E025
S11302F00E940C018C2F0E940C01CF910895052EB1
S113030097FB1EF400940E94960157FD07D00E94AB
S1130310AD0107FC03D04EF40C9496015095409522
S1130320309521953F4F4F4F5F4F0895909580959D
S1130330709561957F4F8F4F9F4F0895A29FB00195
S1130340B39FC001A39F700D811D1124911DB29F05
S1130350700D811D1124911D0895A1E21A2EAA1B6E
S1130360BB1BFD010DC0AA1FBB1FEE1FFF1FA21761
S1130370B307E407F50720F0A21BB30BE40BF50B5E
S1130380661F771F881F991F1A9469F760957095E7
S1130390809590959B01AC01BD01CF010895F8941F
S10503A0FFCF89
S11303A2415944494E4C494B00474F4C4745004B39
S11103B24152414E4C494B0020202020200097
S9030000FC
