:100000000C9434000C943E000C943E000C943E0082
:100010000C943E000C943E000C943E000C943E0068
:100020000C943E000C943E000C943E000C943E0058
:100030000C943E000C943E000C943E000C943E0048
:100040000C943E000C943E000C943E000C943E0038
:100050000C943E000C943E000C943E000C943E0028
:100060000C943E000C943E0011241FBECFEFD8E04C
:10007000DEBFCDBF0E9440000C9464000C940000D1
:100080008FEF8AB95A9A2FEF83ED90E32150804089
:100090009040E1F700C000005A985B9A2FEF8BE484
:1000A0009DE1215080409040E1F700C000005B9846
:1000B0005C9A2FEF87EA91E6215080409040E1F76B
:0C00C00000C000005C98DECFF894FFCF79
:00000001FF
