S01E000041565234394D617374657253656E644C6962726172792E73726563E5
S11300000C9434000C943E000C943E000C943E007E
S11300100C943E000C943E000C943E000C943E0064
S11300200C943E000C943E000C943E000C943E0054
S11300300C943E000C943E000C943E000C943E0044
S11300400C943E000C943E000C943E000C943E0034
S11300500C943E000C943E000C943E000C943E0024
S11300600C943E000C943E0011241FBECFEFD8E048
S1130070DEBFCDBF0E9440000C94A8000C94000089
S11300800E9460008EE70E9466008FEF0E94960037
S11300902FEF89E698E1215080409040E1F700C0BD
S11300A0000080E00E9496002FEF89E698E121503D
S11300B080409040E1F700C000000E948D00E2CF34
S11300C01092B90088E48093B800089594EA90935C
S11300D0BC00ECEBF0E090819923ECF79091B9002F
S11300E0987F983011F09031A1F48093BB0084E89C
S11300F08093BC00ECEBF0E080818823ECF79091D6
S1130100B900987F983139F081E0903429F480E087
S1130110089581E0089580E0089584E98093BC0007
S1130120ECEBF0E0808184FDFDCF08958093BB006B
S113013084E88093BC00ECEBF0E080818823ECF74A
S11301409091B900987F81E0983209F480E0089595
S1070150F894FFCF4D
S9030000FC
