S012000041565233395043494E542E737265633F
S11300000C9434000C943E000C943E000C943E007E
S11300100C9459000C946B000C943E000C943E001C
S11300200C943E000C943E000C943E000C943E0054
S11300300C943E000C943E000C943E000C943E0044
S11300400C943E000C943E000C943E000C943E0034
S11300500C943E000C943E000C943E000C943E0024
S11300600C943E000C943E0011241FBECFEFD8E048
S1130070DEBFCDBF0E9440000C947D000C940000B4
S1130080E8E6F0E0808186608083EDE6F0E0808140
S113009080618083ECE6F0E0808181608083EBE620
S11300A0F0E080818460808387B1806387B978942D
S11300B0FFCF1F920F920FB60F9211248F939F932D
S11300C098B180E2892788B99F918F910F900FBED4
S11300D00F901F9018951F920F920FB60F92112434
S11300E08F939F9398B180E1892788B99F918F91CD
S11100F00F900FBE0F901F901895F894FFCF3D
S9030000FC
