S01500004156523532493243536C6176652E7372656306
S11300000C9434000C9446000C9446000C94460066
S11300100C9446000C9446000C9446000C94460044
S11300200C9446000C9446000C9446000C94460034
S11300300C9446000C9446000C9446000C94460024
S11300400C9446000C9446000C9446000C94460014
S11300500C9446000C9446000C9446000C94460004
S11300600C945A000C94460011241FBECFEFD8E024
S1130070DEBFCDBF21E0A0E0B1E001C01D92A530FC
S1130080B207E1F70E94C2000C94CA000C9400006D
S11300909093030180930201709301016093000126
S11300A00895F894880F8093BA0085EC8093BC007F
S11300B0789408951F920F920FB60F9211242F93E4
S11300C03F934F935F936F937F938F939F93AF93DC
S11300D0BF93EF93FF938091B900887F803849F0F4
S11300E018F4882319F128C0883A71F0883BA9F0E4
S11300F023C08091BB00E0910201F09103010995B6
S113010085EC8093BC001BC0E0910001F0910101DB
S1130110099585EC8093BC0012C0E0910001F09138
S11301200101099585EC8093BC0009C0ECEBF0E07B
S1130130108285EC808303C085EC8093BC00FF9122
S1130140EF91BF91AF919F918F917F916F915F914B
S11301504F913F912F910F900FBE0F901F901895C4
S1130160809304010895809104018093BB00089555
S113017063EB70E080EB90E00E9448008FE20E9405
S1130180510008958FEF8AB90E94B800809104014C
S10B01908BB9FCCFF894FFCFFA
S9030000FC
