S01B0000415652374B61726173696D73656B4B6F6C61792E73726563DE
S11300000C9434000C943E000C943E000C943E007E
S11300100C943E000C943E000C943E000C943E0064
S11300200C943E000C943E000C943E000C943E0054
S11300300C943E000C943E000C943E000C943E0044
S11300400C943E000C943E000C943E000C943E0034
S11300500C943E000C943E000C943E000C943E0024
S11300600C943E000C943E0011241FBECFEFD8E048
S1130070DEBFCDBF0E9440000C9481000C940000B0
S11300808FEF8AB961E070E020E030E04BB1CB0142
S1130090022E02C0880F991F0A94E2F7942F982B1E
S11300A09BB94FEF52E5E7E041505040E040E1F7A3
S11300B000C000009BB1809589238BB92F5F3F4F0F
S11300C02730310519F727E030E04BB1CB01022E80
S11300D002C0880F991F0A94E2F7942F982B9BB9BA
S11300E04FEF52E5E7E041505040E040E1F700C0F7
S11300F000009BB1809589238BB92150310929F7E0
S1090100C3CFF894FFCF09
S9030000FC
