S02000004156523333457874656E6465644672657175656E637954312E737265634D
S11300000C9434000C943E000C943E000C943E007E
S11300100C943E000C943E000C943E000C943E0064
S11300200C943E000C943E000C943E000C943E0054
S11300300C943E000C943E000C943E000C943E0044
S11300400C943E000C943E000C943E000C943E0034
S11300500C943E000C943E000C943E000C943E0024
S11300600C943E000C943E0011241FBECFEFD8E048
S1130070DEBFCDBF0E9440000C945D000C940000D4
S113008084B1866084B9A0E8B0E01C92E1E8F0E0B5
S1130090108210928B0010928A008FE490E090936B
S11300A08900809388008C9180658C93808188601E
S11100B08083808181608083FFCFF894FFCF2E
S9030000FC
