:100000000C9434000C943E000C943E000C943E0082
:100010000C943E000C943E000C943E000C943E0068
:100020000C943E000C943E000C943E000C943E0058
:100030000C943E000C943E000C9453000C943E0033
:100040000C943E000C943E000C943E000C943E0038
:100050000C943E000C943E000C943E000C943E0028
:100060000C943E000C943E0011241FBECFEFD8E04C
:10007000DEBFCDBF0E9440000C9465000C940000D0
:100080003D9A85B5816085BD85B5846085BD84B5A3
:10009000826084BD8BE987BDEEE6F0E080818260FE
:1000A00080837894FFCF1F920F920FB60F92112486
:1000B0008F939F9398B180E2892788B99F918F9100
:0E00C0000F900FBE0F901F901895F894FFCF71
:00000001FF
