S0180000415652333046726571446976696465722E737265636B
S11300000C9434000C943E000C943E000C943E007E
S11300100C943E000C943E000C943E000C943E0064
S11300200C943E000C943E000C943E000C943E0054
S11300300C943E000C943E000C943E000C943E0044
S11300400C943E000C943E000C943E000C943E0034
S11300500C943E000C943E000C943E000C943E0024
S11300600C943E000C943E0011241FBECFEFD8E048
S1130070DEBFCDBF0E9440000C946E000C940000C3
S11300803D9A569A549884B5826084BD84B5806440
S113009084BD85B5826085BD85B5846085BD81E0FC
S11300A087BD84B1866084B9A0E8B0E01C92E1E821
S11300B0F0E0108210928B0010928A008FE193E09E
S11300C090938900809388008C9180658C938081C3
S11300D088608083808181608083FFCFF894FFCF24
S9030000FC
