S01700004156523334467271436F756E7465722E73726563B4
S11300000C9434000C9451000C9451000C94510045
S11300100C9451000C9451000C9451000C94B900B0
S11300200C9451000C9451000C9451000C94510008
S11300300C9451000C9451000C9451000C945100F8
S11300400C9451000C9451000C9476010C94A4016E
S11300500C9451000C9451000C9451000C945100D8
S11300600C9451000C94510011241FBECFEFD8E022
S1130070DEBFCDBF11E0A0E0B1E0EEEEF9E002C0DA
S113008005900D92AE31B107D9F721E0AEE1B1E0B0
S113009001C01D92AF36B207E1F70E9428010C940B
S11300A0F5040C940000CF93DF939C01EEE6F0E09E
S11300B090819E7F908387EC90E00197F1F700C0D8
S11300C0000030936D0120936C0180916501909143
S11300D06601892B31F481E090E09093660180936E
S11300E0650110928000E1E8F0E0108224E830E03D
S11300F0D90111961C921E92808181608083808137
S113010082608083808184608083A0EBB0E01C9255
S1130110C1EBD0E0188288818160888388818D7FDB
S113012088838881846088838C918E7F8C938C9162
S113013082608C938C91877F8C938CE78093B3003F
S113014010926701109264011092630182E083BDF2
S11301501092B200D90111961C921E92A0E7B0E051
S11301608C9182608C93808187608083DF91CF91B2
S113017008951F920F920FB60F9211242F933F935D
S11301808F939F93AF93BF93EF93FF93209163015A
S11301903091640180916C0190916D0128173907A9
S11301A0C0F185E38A95F1F70000E1E8F0E0808191
S11301B0887F8083E0E7F0E080818D7F8083EEE6B6
S11301C0F0E080818160808381E080936701809189
S11301D06E0190E0A0E0B0E0DC01992788278093CD
S11301E0680190936901A0936A01B0936B01209117
S11301F0840030918500820F931FA11DB11D80934F
S1130200680190936901A0936A01B0936B01109205
S11302106E01809163019091640101969093640151
S113022080936301B09B07C080916E018F5F8093C0
S11302306E0181E086BBFF91EF91BF91AF919F91D9
S11302408F913F912F910F900FBE0F901F90189593
S1130250CF93DF93CDB7DEB764970FB6F894DEBFC4
S11302600FBECDBF789487E690E00E94CE018FE365
S11302709CE90197F1F700C0000080E091E00E9442
S1130280FC010F2EFAE0CF2ED12CF02D0F2EF8E129
S1130290EF2EF1E0FF2EF02D8E010F5F1F4FD09255
S11302A06601C092650188EE93E00E94530080913C
S11302B067018823E1F380916B018F9380916A0138
S11302C08F93809169018F93809168018F93FF923E
S11302D0EF921F930F930E940B02C8010E94FC012E
S11302E00FB6F894DEBF0FBECDBFD9CF1F920F92C9
S11302F00FB60F9211242F938F939F93EF93FF9335
S11303008091C0002091C6008C71E0912001EF5FC4
S1130310EF7190911F01E91739F0E0932001F0E0AB
S1130320ED5DFE4F208301C082E090911E01892B78
S113033080931E01FF91EF919F918F912F910F90C8
S11303400FBE0F901F9018951F920F920FB60F9229
S113035011248F939F93EF93FF93909122018091A7
S11303602101981769F0E0912101EF5FEF71E093AB
S11303702101F0E0ED5BFE4F80818093C60005C053
S1130380E1ECF0E080818F7D8083FF91EF919F917C
S11303908F910F900FBE0F901F901895109222010D
S11303A0109221011092200110921F0199231CF434
S11303B022E02093C00090789093C5008093C400FD
S11303C088E98093C10086E08093C200089520915B
S11303D022012F5F2F71909121012917E1F3E22F60
S11303E0F0E0ED5BFE4F808320932201E1ECF0E02E
S11303F08081806280830895CF93DF93EC018881AC
S1130400882331F021960E94E70189918111FBCF65
S1130410DF91CF910895AEE0B0E0E1E1F2E00C9419
S1130420CC040D891E8986E08C831A8309838FEF9F
S11304309FE79E838D83AE01475E5F4F6F89788D02
S1130440CE0101960E942D02EF81F885E00FF11F85
S113045010822E96E4E00C94E804ABE0B0E0E3E311
S1130460F2E00C94BE046C017B018A01FC0117824A
S11304701682838181FFCCC1CE0101963C01F60135
S11304809381F70193FD859193FF81917F018823E7
S113049009F4BAC1853239F493FD859193FF8191B2
S11304A07F01853229F4B60190E00E942404E7CF4D
S11304B0912C212C312CFFE1F315D8F08B3279F0FB
S11304C038F4803279F08332A1F4232D20611DC0E9
S11304D08D3261F0803369F4232D216016C0832DA1
S11304E08260382EE32DE4603E2E2AC0F32DF8609E
S11304F01DC037FC2DC020ED280F2A3040F08E326D
S1130500B9F436FC81C1232D2064322E19C036FE85
S113051006C08AE0989E200D1124922E11C0EAE0B4
S11305202E9E200D1124222EF32DF0623F2E08C0A2
S11305308C3621F4832D8068382E02C0883641F42D
S1130540F70193FD859193FF81917F018111B3CFD1
S1130550982F9F7D9554933028F40C5F1F4F9FE391
S113056099830DC0833631F0833771F0833509F0F8
S113057059C021C0F801808189830E5F1F4F8824F0
S11305808394912C530113C02801F2E04F0E511CA7
S1130590F801A080B18036FE03C0692D70E002C06E
S11305A06FEF7FEFC5010E9419044C018201F32D06
S11305B0FF773F2E16C0280122E0420E511CF8019D
S11305C0A080B18036FE03C0692D70E002C06FEFD9
S11305D07FEFC5010E940E044C01F32DF0683F2EFD
S11305E0820133FC1BC0822D90E088169906B0F47A
S11305F0B60180E290E00E9424042A94F4CFF5012D
S113060037FC859137FE81915F01B60190E00E942D
S1130610240421102A9421E0821A9108811491045F
S113062071F7E8C0843611F0893641F5F80137FED8
S113063007C060817181828193810C5F1F4F08C064
S113064060817181072E000C880B990B0E5F1F4F80
S1130650F32DFF763F2E97FF09C0909580957095F6
S113066061957F4F8F4F9F4FF0683F2E2AE030E017
S1130670A3010E946004882E861845C0853731F492
S1130680232D2F7EB22E2AE030E025C0932D997FB2
S1130690B92E8F36C1F018F4883579F0B5C080379B
S11306A019F0883721F0B0C0E92FE061BE2EB4FE06
S11306B00DC0FB2DF460BF2E09C034FE0AC0292FE3
S11306C02660B22E06C028E030E005C020E130E00C
S11306D002C020E132E0F801B7FE07C060817181F9
S11306E0828193810C5F1F4F06C06081718180E01D
S11306F090E00E5F1F4FA3010E946004882E8618AD
S1130700FB2DFF773F2E36FE0DC0232D2E7FA22E0C
S1130710891458F434FE0BC032FC09C0832D8E7E3C
S1130720A82E05C0B82CA32C03C0B82C01C0B92C2A
S1130730A4FE0FC0FE01E80DF11D8081803321F479
S11307409A2D997EA92E09C0A2FE06C0B394B39433
S113075004C08A2D867809F0B394A3FC11C0A0FECE
S113076006C0B21488F4280C922C9B180EC0B21444
S113077060F4B60180E290E00E942404B394F7CFC1
S1130780B21418F42B1802C0982C212CA4FE10C00B
S1130790B60180E390E00E942404A2FE17C0A1FCED
S11307A003C088E790E002C088E590E0B6010CC081
S11307B08A2D867859F0A1FE02C08BE201C080E246
S11307C0A7FC8DE2B60190E00E942404891438F459
S11307D0B60180E390E00E9424049A94F7CF8A94AF
S11307E0F301E80DF11D8081B60190E00E9424041C
S11307F08110F5CF222009F442CEB60180E290E0C8
S11308000E9424042A94F6CFF6018681978102C0BF
S11308108FEF9FEF2B96E2E10C94DA04FC01059034
S1130820615070400110D8F7809590958E0F9F1FEE
S11308300895FC016150704001900110D8F7809533
S113084090958E0F9F1F08950F931F93CF93DF935F
S1130850FB01238121FD03C08FEF9FEF2CC022FFFA
S113086016C046815781248135814217530744F4C9
S1130870A081B1819D012F5F3F4F318320838C93F1
S1130880268137812F5F3F4F3783268314C08B0126
S1130890EC01FB010084F185E02D0995892BE1F63B
S11308A0D80116968D919C911797019617969C9353
S11308B08E931697CE01DF91CF911F910F910895DA
S11308C0FA01AA27283051F1203181F1E8946F937D
S11308D06E7F6E5F7F4F8F4F9F4FAF4FB1E03ED023
S11308E0B4E03CD0670F781F891F9A1FA11D680FC1
S11308F0791F8A1F911DA11D6A0F711D811D911DF4
S1130900A11D20D009F468943F912AE0269F112468
S11309103019305D3193DEF6CF010895462F4770CC
S1130920405D4193B3E00FD0C9F7F6CF462F4F7027
S1130930405D4A3318F0495D31FD4052419302D085
S1130940A9F7EACFB4E0A69597958795779567952B
S1130950BA95C9F700976105710508959B01AC012B
S11309600A2E06945795479537952795BA95C9F752
S1130970620F731F841F951FA01D08952F923F922D
S11309804F925F926F927F928F929F92AF92BF929B
S1130990CF92DF92EF92FF920F931F93CF93DF9347
S11309A0CDB7DEB7CA1BDB0B0FB6F894DEBF0FBEA4
S11309B0CDBF09942A88398848885F846E847D84F1
S11309C08C849B84AA84B984C884DF80EE80FD80F3
S11309D00C811B81AA81B981CE0FD11D0FB6F89469
S11109E0DEBF0FBECDBFED010895F894FFCF2A
S11309EE415652204652454B414E53204F4B55597A
S11109FE554355200A200A00256C75200A0076
S9030000FC
