:100000000C9434000C943E000C943E000C943E0082
:100010000C943E000C943E000C943E000C943E0068
:100020000C943E000C943E000C943E000C943E0058
:100030000C943E000C943E000C943E000C943E0048
:100040000C943E000C943E000C943E000C943E0038
:100050000C943E000C943E000C943E000C943E0028
:100060000C943E000C943E0011241FBECFEFD8E04C
:10007000DEBFCDBF0E9440000C9465000C940000D0
:100080005598569A219A85B5816085BD85B584605D
:1000900085BD84B5826084BD84B5806484BD8FEFE6
:1000A00087BDE0E8F0E0808180648083E1E8F0E0F3
:1000B00080818860808380818760808381E090E098
:0E00C0009093890080938800FFCFF894FFCFC3
:00000001FF
