S01300004156523435535049416E612E73726563C3
S11300000C9434000C943E000C943E000C943E007E
S11300100C943E000C943E000C943E000C943E0064
S11300200C943E000C943E000C943E000C943E0054
S11300300C943E000C943E000C943E000C943E0044
S11300400C943E000C943E000C943E000C943E0034
S11300500C943E000C943E000C943E000C943E0024
S11300600C943E000C943E0011241FBECFEFD8E048
S1130070DEBFCDBF0E944E000C9481000C940000A2
S113008084B1886284B9229A8CB581658CBD089547
S11300908EBD0DB407FEFDCF8EB508950E944000BD
S11300A081E30E9448002FEF89E698E121508040C7
S11300B09040E1F700C0000082E30E9448002FEF67
S11300C089E698E1215080409040E1F700C00000AB
S11300D081E30E9448002FEF89E698E12150804097
S11300E09040E1F700C0000082E30E9448002FEF37
S11300F089E698E1215080409040E1F700C000007B
S1090100CFCFF894FFCFFD
S9030000FC
